:020000040800F2
:1000000000000220D16101085D3601086D3601084B
:10001000753601087D3601088536010800000000AC
:100020000000000000000000000000008D36010804
:100030009D36010800000000AD360108BD360108FC
:1000400015620108156201081562010815620108B0
:1000500015620108156201081562010815620108A0
:100060001562010815620108156201081562010890
:100070001562010815620108156201081562010880
:100080001562010815620108156201081562010870
:100090001562010815620108156201081562010860
:1000A0001562010815620108156201081562010850
:1000B0001562010815620108156201081562010840
:1000C0001562010815620108156201081562010830
:1000D0001562010815620108156201081562010820
:1000E0001562010815620108156201081562010810
:1000F0001562010815620108156201081562010800
:1001000015620108156201081562010815620108EF
:1001100015620108156201081562010815620108DF
:1001200015620108156201081562010815620108CF
:1001300015620108156201081562010815620108BF
:1001400015620108156201081562010815620108AF
:10015000156201081562010815620108156201089F
:10016000156201081562010815620108156201088F
:10017000156201081562010815620108156201087F
:08018000156201081562010877
:1001C00010B5054C237833B9044B13B10448AFF391
:1001D00000800123237010BD040A002000000000ED
:1001E00084C60108084B10B51BB108490848AFF395
:1001F00000800848036803B910BD074B002BFBD0F3
:10020000BDE81040184700BF00000000080A0020A9
:1002100084C60108000A002000000000154B002BD6
:1002200008BF134B9D46A3F5803A00218B460F462D
:100230001348144A121A16F069F80F4B002B00D01D
:1002400098470E4B002B00D0984700200021040057
:100250000D000D48002802D00C4817F079FD16F06B
:100260002DF82000290013F09BF915F0D5FF00BFF1
:100270000000080000000000000000000000000076
:10028000040A0020A40A0020517D01086990010899
:1002900080B500AF044B1B68DB681B2201210348BB
:1002A00015F0FCFF00BF80BD80040020FCC10108E8
:1002B00080B483B000AF78607B685B68194A934272
:1002C00007DB7B681B68002B0EDD7B685B68002BFF
:1002D0000ADA7B681B685A1E7B681A607B685A685A
:1002E000114B13447A6853607B685B680E4A9342F3
:1002F00007DC7B681B68002B0EDA7B685B68002BD1
:100300000ADD7B681B685A1C7B681A607B685A6828
:10031000044B13447A68536000BF0C37BD465DF848
:10032000047B7047003665C400CA9A3B80B58EB026
:1003300000AFF860B9607A603B607B68002B02DD3B
:100340007B680C2B01DDFFF7A3FF3B6803F0030381
:10035000002B1CD13A68674B83FB02135911D3174A
:10036000CB1A642101FB03F3D31A002B0DD13A6899
:10037000604B83FB0213D911D317CB1A4FF4C8710A
:1003800001FB03F3D31A002B01D1012200E000226C
:100390007B68591E584813465B0013449B00134466
:1003A0000B4430F813301A46BB6813447B633B6838
:1003B00003F00303002B1CD13A684E4B83FB02135E
:1003C0005911D317CB1A642101FB03F3D31A002B65
:1003D0000DD13A68474B83FB0213D911D317CB1ABF
:1003E0004FF4C87101FB03F3D31A002B01D1012292
:1003F00000E00022404913465B0013449B00134475
:100400007A68134431F813301A467B6B9A4201DA4A
:10041000FFF73EFF3B689B103A6802F00302002A98
:100420000CBF01220022D2B29B1A3B634FF4F67339
:10043000FB623B6B2F4A82FB0312D210DB17D01AF0
:10044000396B2C4B83FB0123DA10CB17D21A1346DE
:100450009B0013449A001344CA1AD30FDBB2C31A89
:10046000BB62FB6A234A82FB0312D210DB17D01A4D
:10047000F96A204B83FB0123DA10CB17D21A1346FB
:100480009B0013449A001344CA1AD30FDBB2C31A59
:100490007B62BB6A9B103B627B6A9B10FB613A6B81
:1004A000FB6AD21AB96A7B6ACB1AD21A396AFB691B
:1004B000CB1A1344BB613B68A3F2B27340F26D12D6
:1004C00002FB03F2BB691A447B6B1344013B0B4AEA
:1004D00002FB03F33B6100237B61FB681A4607F1D3
:1004E000100393E8030082E80300F8683837BD463C
:1004F00080BD00BF1F85EB5118C20108805101006B
:10050000B0B588B000AFF860C7E9002307F1180064
:10051000BB6C7A6C396CFFF709FF4FF00002504B4F
:10052000D7E90E0114F0CEFE03460C4618462146CC
:10053000D7E90C2314F014FD03460C461846214657
:100540004FF00002464B14F0BDFE03460C46184621
:100550002146D7E9002314F003FD03460C46184654
:10056000214615F0C1F803463B614FF000023C4BB9
:10057000D7E90E0114F0A6FE03460C4618462146A4
:10058000D7E90C2314F0ECFC03460C461846214630
:100590004FF00002324B14F095FE03460C4618460D
:1005A0002146D7E9002314F0DBFC03460C46254620
:1005B0001C464FF000022A4BD7E90E0114F082FED0
:1005C00002460B4610461946D7E90C2314F0C8FC26
:1005D00002460B46104619464FF00002204B14F01D
:1005E00071FE02460B4610461946D7E9002314F067
:1005F000B7FC02460B461046194615F075F803463F
:10060000184614F0F9FD02460B462046294614F020
:10061000A5FC03460C46184621460FA3D3E9002348
:1006200014F050FE03460C461846214615F05CF8BF
:1006300003467B613A69BB6913443B61FB681A4618
:1006400007F1100393E8030082E80300F8682037FD
:10065000BD46B0BDAFF300800000000065CDCD41C8
:1006600000004E4082B080B586B000AFF860381D03
:1006700080E806007B627A687B6A13443B61BA6853
:10068000BB6A13447B6107F110031846FFF710FEA5
:10069000FB681A4607F1100393E8030082E80300A1
:1006A000F8681837BD46BDE8804002B0704700BF0B
:1006B00082B080B586B000AFF860381D80E80600D3
:1006C0007B627A687B6AD31A3B61BA68BB6AD31AC9
:1006D0007B6107F110031846FFF7EAFDFB681A4635
:1006E00007F1100393E8030082E80300F868183765
:1006F000BD46BDE8804002B0704700BFB0B582B0D3
:1007000000AF3B4683E803003B68184614F074FDD5
:1007100004460D467B68184614F06EFD08A3D3E925
:10072000002314F0F9FE02460B462046294614F039
:1007300017FC03460C46184621460837BD46B0BD97
:100740000000000065CDCD4190B585B000AFB96027
:10075000394681E80C000346FB73FB7B002B08D174
:10076000BB68002B02D0BB6800221A704FF0000358
:1007700011E0BB68002B02D0BB6801221A703B4617
:1007800093E80300FFF7BAFF03460C4618462146DC
:1007900014F0D2FF034607EE903AB0EE670A143722
:1007A000BD4690BD08B480B486B000AF0346396042
:1007B000FB711346BB80FB79002B07D13B68002BF4
:1007C00002D03B6800221A7000233CE03B68002BFB
:1007D00002D03B6801221A7007F124033B61002319
:1007E000FB822AE03B6903F108023A6107F1080243
:1007F00093E8030082E80300BA68FB699A4206D1D5
:100800003A6AFB68D31ADB43DB0FDBB205E0FA6917
:10081000BB68D31ADB43DB0FDBB2002B0BD007F135
:100820001C0207F1080393E8030082E80300FB8A37
:100830000133FB8201E0002305E0FA8ABB88013B1B
:100840009A42CFDB012318461837BD465DF8047B7A
:1008500001B0704708B480B486B000AF0346396079
:10086000FB711346BB80FB79002B07D13B68002B43
:1008700002D03B6800221A70002340E03B68002B46
:1008800002D03B6801221A7007F124033B61002368
:10089000FB822EE03B6903F108023A6107F108028E
:1008A00093E8030082E80300BA68FB699A4208D122
:1008B0003A6AFB68D31A002BD4BF01230023DBB2B2
:1008C00007E0FA69BB68D31A002BD4BF01230023C9
:1008D000DBB2002B0BD007F11C0207F1080393E8F1
:1008E000030082E80300FB8A0133FB8201E000235E
:1008F00005E0FA8ABB88013B9A42CBDB012318460C
:100900001837BD465DF8047B01B0704780B483B0F2
:1009100000AF78600B46FB707B6801221A707B6821
:100920005B785AB2FB78002B01D0042300E000234F
:1009300013435BB2DAB27B685A707B6801229A700B
:100940007B68DB785AB2FB78002B01D0042300E0EF
:10095000002313435BB2DAB27B68DA707B68002253
:100960001A717B685B795AB2FB78002B01D00423A3
:1009700000E0002313435BB2DAB27B685A717B68F4
:1009800000229A717B68DB795AB2FB78002B01D088
:10099000042300E0002313435BB2DAB27B68DA7110
:1009A0007B6800221A727B685B7A43F00403DAB238
:1009B0007B685A7200BF0C37BD465DF8047B7047F8
:1009C00080B483B000AF78607B681B78002B09D1BE
:1009D0007B68DB7803F00203002B2DD17B680022BB
:1009E0009A7029E07B68DB7803F00203002B02D1C8
:1009F0007B6801229A707B68DB7903F00203002B8D
:100A00000DD17B681B79002B05D07B681B7A002BEE
:100A100001D1012300E00023DAB27B689A717B6880
:100A20005B7A03F00203002B03D17B681A797B68A1
:100A30001A7200BF00BF00E000BF0C37BD465DF872
:100A4000047B704780B483B000AF78600B46FB70C6
:100A50007B6801221A707B685B785AB2FB78002BA6
:100A600001D0042300E0002313435BB2DAB27B68B9
:100A70005A707B6801229A707B68DB785AB2FB78E7
:100A8000002B01D0042300E0002313435BB2DAB251
:100A90007B68DA707B6800221A717B685B795AB2D6
:100AA000FB78002B01D0042300E0002313435BB24A
:100AB000DAB27B685A717B6800229A717B68DB79B5
:100AC0005AB2FB78002B01D0042300E0002313432B
:100AD0005BB2DAB27B68DA717B6800221A727B68DB
:100AE0005B7A43F00403DAB27B685A7200BF0C37BA
:100AF000BD465DF8047B704780B483B000AF78607A
:100B00007B681B78002B09D17B68DB7803F002033C
:100B1000002B33D17B6800229A702FE07B68DB7852
:100B200003F00203002B02D17B6801229A707B68DC
:100B3000DB7903F00203002B0DD17B681B79002BBE
:100B400005D17B681B7A002B01D1012300E0002333
:100B5000DAB27B689A717B685B7A03F00203002B40
:100B600009D17B681B79002B0CBF01230023DBB26A
:100B70001A467B681A7200BF00BF00E000BF0C3746
:100B8000BD465DF8047B704780B483B000AF7860E9
:100B90000B46FB707B6801221A707B685B785AB247
:100BA000FB78002B01D0042300E0002313435BB249
:100BB000DAB27B685A707B6801229A707B68DB78B6
:100BC0005AB2FB78002B01D0042300E0002313432A
:100BD0005BB2DAB27B68DA707B6800221A717B68DC
:100BE0005B795AB2FB78002B01D0042300E000238C
:100BF00013435BB2DAB27B685A717B6800229A7148
:100C00007B68DB795AB2FB78002B01D0042300E02B
:100C1000002313435BB2DAB27B68DA717B6800228F
:100C20001A727B685B7A5AB2FB78002B01D00423DE
:100C300000E0002313435BB2DAB27B685A7200BF54
:100C40000C37BD465DF8047B704700BF80B483B0AD
:100C500000AF78607B681B78002B09D17B68DB785C
:100C600003F00203002B27D17B6800229A7023E057
:100C70007B68DB7803F00203002B02D17B68012242
:100C80009A707B685B7A03F00203002B11D17B68BA
:100C90001B79002B07D17B689B79002B05D17B68E2
:100CA0001B7A002B01D0012300E00023DAB27B681D
:100CB0001A7200BF00BF00E000BF0C37BD465DF8F0
:100CC000047B704780B483B000AF78600B46FB7044
:100CD0007B6801221A707B685B785AB2FB78002B24
:100CE00001D0042300E0002313435BB2DAB27B6837
:100CF0005A707B6801229A707B68DB785AB2FB7865
:100D0000002B01D0042300E0002313435BB2DAB2CE
:100D10007B68DA707B6800221A717B685B795AB253
:100D2000FB78002B01D0042300E0002313435BB2C7
:100D3000DAB27B685A717B6800229A717B68DB7932
:100D40005AB2FB78002B01D0042300E000231343A8
:100D50005BB2DAB27B68DA717B6800221A727B6858
:100D60005B7A5AB2FB78002B01D0042300E0002309
:100D700013435BB2DAB27B685A7200BF0C37BD46D0
:100D80005DF8047B704700BF80B483B000AF78602B
:100D90007B681B78002B09D17B68DB7803F00203AA
:100DA000002B27D17B6800229A7023E07B68DB78D8
:100DB00003F00203002B02D17B6801229A707B684A
:100DC0005B7A03F00203002B11D17B689B79002B27
:100DD00009D17B681B79002B03D17B681B7A002B20
:100DE00001D0012300E00023DAB27B681A7200BF51
:100DF00000BF00E000BF0C37BD465DF8047B7047C4
:100E000080B582B000AF78600B46FB707B68012232
:100E10001A707B685B785AB2FB78002B01D00423F0
:100E200000E0002313435BB2DAB27B685A707B6840
:100E300001229A707B68DB785AB2FB78002B01D0D4
:100E4000042300E0002313435BB2DAB27B68DA705C
:100E50007B6800221A717B685B795AB2FB78002BA1
:100E600001D0042300E0002313435BB2DAB27B68B5
:100E70005A717B6800229A717B68DB795AB2FB78E1
:100E8000002B01D0042300E0002313435BB2DAB24D
:100E90007B68DA717B6800221A817B689B7A5AB280
:100EA000FB78002B01D0042300E0002313435BB246
:100EB000DAB27B689A727B6800221A737B685B7B6C
:100EC0005AB2FB78002B01D0042300E00023134327
:100ED0005BB2DAB27B685A737B680022DA817B6886
:100EE0001B7C5AB2FB78002B01D0042300E00023C6
:100EF00013435BB2DAB27B681A747B681233FA78F8
:100F000011461846FFF702FD00BF0837BD4680BDF9
:100F100080B582B000AF78607B681B78002B09D168
:100F20007B68DB7803F00203002B5BD17B68002237
:100F30009A7057E07B68DB7803F00203002B02D144
:100F40007B6801229A707B68DB7D03F00203002B33
:100F500003D17B681A797B689A757B6812331846CF
:100F6000FFF72EFD7B689B79002B09D07B681B7CEB
:100F700003F00203002B1ED17B680022DA811AE005
:100F80007B681B7E002B16D07B68B3F90E207B6834
:100F9000B3F908309A420EDA7B681B7C03F0020337
:100FA000002B08D17B68B3F90E309BB201339BB2A2
:100FB0001AB27B68DA817B685B7B03F00203002B4B
:100FC0000DD17B68B3F90E207B68B3F908309A42E3
:100FD000ACBF01230023DBB21A467B681A7300BF43
:100FE00000BF00E000BF0837BD4680BD80B582B0BD
:100FF00000AF78600B46FB707B6801221A707B683B
:101000005B785AB2FB78002B01D0042300E0002368
:1010100013435BB2DAB27B685A707B6801229A7024
:101020007B68DB785AB2FB78002B01D0042300E008
:10103000002313435BB2DAB27B68DA707B6800226C
:101040001A717B685B795AB2FB78002B01D00423BC
:1010500000E0002313435BB2DAB27B685A717B680D
:1010600000229A717B68DB795AB2FB78002B01D0A1
:10107000042300E0002313435BB2DAB27B68DA7129
:101080007B6800229A607B681B7B5AB2FB78002B3E
:1010900001D0042300E0002313435BB2DAB27B6883
:1010A0001A737B6800221A747B685B7C5AB2FB78E7
:1010B000002B01D0042300E0002313435BB2DAB21B
:1010C0007B685A747B6800225A617B681B7E5AB227
:1010D000FB78002B01D0042300E0002313435BB214
:1010E000DAB27B681A767B681C33FA7811461846A8
:1010F000FFF70CFC00BF0837BD4680BD80B582B04D
:1011000000AF78607B681B78002B09D17B68DB78A7
:1011100003F00203002B56D17B6800229A7052E044
:101120007B68DB7803F00203002B02D17B6801228D
:101130009A707B6893F8213003F00203002B04D1EE
:101140007B681A797B6883F820207B681C331846FB
:10115000FFF736FC7B689B79002B09D07B681B7EF0
:1011600003F00203002B19D17B6800225A6115E0BD
:101170007B6893F82230002B10D07B685A697B681B
:101180009B689A420ADA7B681B7E03F00203002BFD
:1011900004D17B685B695A1C7B685A617B685B7C05
:1011A00003F00203002B0BD17B685A697B689B68B4
:1011B0009A42ACBF01230023DBB21A467B681A7443
:1011C00000BF00BF00E000BF0837BD4680BD00BFC4
:1011D00090B583B000AF78600B46FB707B6801224E
:1011E0001A707B685B785AB2FB78002B01D004231D
:1011F00000E0002313435BB2DAB27B685A707B686D
:1012000001229A707B68DB785AB2FB78002B01D000
:10121000042300E0002313435BB2DAB27B68DA7088
:101220007B6800221A717B685B795AB2FB78002BCD
:1012300001D0042300E0002313435BB2DAB27B68E1
:101240005A717B6800229A717B68DB795AB2FB780D
:10125000002B01D0042300E0002313435BB2DAB279
:101260007B68DA717A684FF000034FF00004C2E93E
:1012700002347B681B7C5AB2FB78002B01D004231C
:1012800000E0002313435BB2DAB27B681A747B6818
:1012900000221A767B685B7E5AB2FB78002B01D065
:1012A000042300E0002313435BB2DAB27B685A7672
:1012B0007A684FF000034FF00004C2E908347B68FD
:1012C00093F828305AB2FB78002B01D0042300E0B9
:1012D000002313435BB2DAB27B6883F828207B6873
:1012E0003033FA7811461846FFF710FB00BF0C3771
:1012F000BD4690BD90B583B000AF78607B681B7829
:10130000002B09D17B68DB7803F00203002B68D146
:101310007B6800229A7064E07B68DB7803F002034C
:10132000002B02D17B6801229A707B6893F83530DC
:1013300003F00203002B04D17B681A797B6883F8E1
:1013400034207B6830331846FFF73AFB7B689B7983
:10135000002B0ED07B6893F8283003F00203002B9B
:1013600026D17A684FF000034FF00004C2E9083438
:101370001EE07B6893F83630002B19D07B68D3E9E8
:1013800008127B68D3E90234994272EB04030FDA46
:101390007B6893F8283003F00203002B08D17B68A8
:1013A000D3E90834013344F100047A68C2E908340F
:1013B0007B685B7E03F00203002B0FD17B68D3E9CF
:1013C00008127B68D3E90234994272EB0403ACBF84
:1013D00001230023DBB21A467B681A7600BF00BFE8
:1013E00000E000BF0C37BD4690BD00BF80B582B0A5
:1013F00000AF78600B46FB707B6801221A707B6837
:101400005B785AB2FB78002B01D0042300E0002364
:1014100013435BB2DAB27B685A707B6801229A7020
:101420007B68DB785AB2FB78002B01D0042300E004
:10143000002313435BB2DAB27B68DA707B68002268
:101440001A717B685B795AB2FB78002B01D00423B8
:1014500000E0002313435BB2DAB27B685A717B6809
:1014600000229A717B68DB795AB2FB78002B01D09D
:10147000042300E0002313435BB2DAB27B68DA7125
:101480007B6800229A607B681B7B5AB2FB78002B3A
:1014900001D0042300E0002313435BB2DAB27B687F
:1014A0001A737B6800221A747B685B7C5AB2FB78E3
:1014B000002B01D0042300E0002313435BB2DAB217
:1014C0007B685A747B6800225A617B681B7E5AB223
:1014D000FB78002B01D0042300E0002313435BB210
:1014E000DAB27B681A767B681C33FA7811461846A4
:1014F000FFF70CFA00BF0837BD4680BD80B582B04B
:1015000000AF78607B681B78002B09D17B68DB78A3
:1015100003F00203002B56D17B6800229A7052E040
:101520007B68DB7803F00203002B02D17B68012289
:101530009A707B6893F8213003F00203002B04D1EA
:101540007B681A797B6883F820207B681C331846F7
:10155000FFF736FA7B689B79002B09D07B681B7EEE
:1015600003F00203002B19D17B6800225A6115E0B9
:101570007B6893F82230002B10D07B685A697B6817
:101580009B689A420AD27B681B7E03F00203002B01
:1015900004D17B685B695A1C7B685A617B685B7C01
:1015A00003F00203002B0BD17B685A697B689B68B0
:1015B0009A422CBF01230023DBB21A467B681A74BF
:1015C00000BF00BF00E000BF0837BD4680BD00BFC0
:1015D00090B583B000AF78600B46FB707B6801224A
:1015E0001A707B685B785AB2FB78002B01D0042319
:1015F00000E0002313435BB2DAB27B685A707B6869
:1016000001229A707B68DB785AB2FB78002B01D0FC
:10161000042300E0002313435BB2DAB27B68DA7084
:101620007B6800221A717B685B795AB2FB78002BC9
:1016300001D0042300E0002313435BB2DAB27B68DD
:101640005A717B6800229A717B68DB795AB2FB7809
:10165000002B01D0042300E0002313435BB2DAB275
:101660007B68DA717A684FF000034FF00004C2E93A
:1016700002347B681B7C5AB2FB78002B01D0042318
:1016800000E0002313435BB2DAB27B681A747B6814
:1016900000221A767B685B7E5AB2FB78002B01D061
:1016A000042300E0002313435BB2DAB27B685A766E
:1016B0007A684FF000034FF00004C2E908347B68F9
:1016C00093F828305AB2FB78002B01D0042300E0B5
:1016D000002313435BB2DAB27B6883F828207B686F
:1016E0003033FA7811461846FFF710F900BF0C376F
:1016F000BD4690BD90B583B000AF78607B681B7825
:10170000002B09D17B68DB7803F00203002B68D142
:101710007B6800229A7064E07B68DB7803F0020348
:10172000002B02D17B6801229A707B6893F83530D8
:1017300003F00203002B04D17B681A797B6883F8DD
:1017400034207B6830331846FFF73AF97B689B7981
:10175000002B0ED07B6893F8283003F00203002B97
:1017600026D17A684FF000034FF00004C2E9083434
:101770001EE07B6893F83630002B19D07B68D3E9E4
:1017800008127B68D3E90234A24208BF99420FD203
:101790007B6893F8283003F00203002B08D17B68A4
:1017A000D3E90834013344F100047A68C2E908340B
:1017B0007B685B7E03F00203002B0FD17B68D3E9CB
:1017C00008127B68D3E90234A24208BF99422CBFB9
:1017D00001230023DBB21A467B681A7600BF00BFE4
:1017E00000E000BF0C37BD4690BD00BF80B582B0A1
:1017F00000AF78600B46FB707B6801221A707B6833
:101800005B785AB2FB78002B01D0042300E0002360
:1018100013435BB2DAB27B685A707B6801229A701C
:101820007B68DB785AB2FB78002B01D0042300E000
:10183000002313435BB2DAB27B68DA707B68002264
:101840001A717B685B795AB2FB78002B01D00423B4
:1018500000E0002313435BB2DAB27B685A717B6805
:1018600000229A717B68DB795AB2FB78002B01D099
:10187000042300E0002313435BB2DAB27B68DA7121
:101880007B6800221A817B689B7A5AB2FB78002B16
:1018900001D0042300E0002313435BB2DAB27B687B
:1018A0009A727B6800221A737B685B7B5AB2FB7862
:1018B000002B01D0042300E0002313435BB2DAB213
:1018C0007B685A737B680022DA817B681B7C5AB282
:1018D000FB78002B01D0042300E0002313435BB20C
:1018E000DAB27B681A747B681233FA7811461846AC
:1018F000FFF70CF800BF0837BD4680BD80B582B049
:1019000000AF78607B681B78002B09D17B68DB789F
:1019100003F00203002B57D17B6800229A7053E03A
:101920007B68DB7803F00203002B02D17B68012285
:101930009A707B68DB7D03F00203002B03D17B6888
:101940001A797B689A757B6812331846FFF738F866
:101950007B689B79002B0BD07B681B7C03F0020318
:10196000002B1DD17B68B3F908207B68DA8117E072
:101970007B681B7E002B13D07B68B3F90E30002BE5
:101980000EDD7B681B7C03F00203002B08D17B6813
:10199000B3F90E309BB2013B9BB21AB27B68DA817D
:1019A0007B685B7B03F00203002B0AD17B68B3F9F1
:1019B0000E30002BD4BF01230023DBB21A467B6814
:1019C0001A7300BF00BF00E000BF0837BD4680BDEE
:1019D00080B582B000AF78600B46FB707B68012257
:1019E0001A707B685B785AB2FB78002B01D0042315
:1019F00000E0002313435BB2DAB27B685A707B6865
:101A000001229A707B68DB785AB2FB78002B01D0F8
:101A1000042300E0002313435BB2DAB27B68DA7080
:101A20007B6800221A717B685B795AB2FB78002BC5
:101A300001D0042300E0002313435BB2DAB27B68D9
:101A40005A717B6800229A717B68DB795AB2FB7805
:101A5000002B01D0042300E0002313435BB2DAB271
:101A60007B68DA717B6800229A607B681B7B5AB2C4
:101A7000FB78002B01D0042300E0002313435BB26A
:101A8000DAB27B681A737B6800221A747B685B7C0D
:101A90005AB2FB78002B01D0042300E0002313434B
:101AA0005BB2DAB27B685A747B6800225A617B6849
:101AB0001B7E5AB2FB78002B01D0042300E00023E8
:101AC00013435BB2DAB27B681A767B681C33FA7810
:101AD00011461846FEF71AFF00BF0837BD4680BD05
:101AE00080B582B000AF78607B681B78002B09D18D
:101AF0007B68DB7803F00203002B53D17B68002264
:101B00009A704FE07B68DB7803F00203002B02D170
:101B10007B6801229A707B6893F8213003F00203FE
:101B2000002B04D17B681A797B6883F820207B68BE
:101B30001C331846FEF744FF7B689B79002B0AD0C4
:101B40007B681B7E03F00203002B18D17B689A6828
:101B50007B685A6113E07B6893F82230002B0ED02B
:101B60007B685B69002B0ADD7B681B7E03F0020348
:101B7000002B04D17B685B695A1E7B685A617B68C5
:101B80005B7C03F00203002B09D17B685B69002BAF
:101B9000D4BF01230023DBB21A467B681A7400BF4E
:101BA00000BF00E000BF0837BD4680BD90B583B0E0
:101BB00000AF78600B46FB707B6801221A707B686F
:101BC0005B785AB2FB78002B01D0042300E000239D
:101BD00013435BB2DAB27B685A707B6801229A7059
:101BE0007B68DB785AB2FB78002B01D0042300E03D
:101BF000002313435BB2DAB27B68DA707B680022A1
:101C00001A717B685B795AB2FB78002B01D00423F0
:101C100000E0002313435BB2DAB27B685A717B6841
:101C200000229A717B68DB795AB2FB78002B01D0D5
:101C3000042300E0002313435BB2DAB27B68DA715D
:101C40007A684FF000034FF00004C2E902347B6869
:101C50001B7C5AB2FB78002B01D0042300E0002348
:101C600013435BB2DAB27B681A747B6800221A767F
:101C70007B685B7E5AB2FB78002B01D0042300E026
:101C8000002313435BB2DAB27B685A767A684FF06E
:101C900000034FF00004C2E908347B6893F8283051
:101CA0005AB2FB78002B01D0042300E00023134339
:101CB0005BB2DAB27B6883F828207B683033FA782D
:101CC00011461846FEF722FE00BF0C37BD4690BDF8
:101CD00090B583B000AF78607B681B78002B09D18A
:101CE0007B68DB7803F00203002B62D17B68002263
:101CF0009A705EE07B68DB7803F00203002B02D170
:101D00007B6801229A707B6893F8353003F00203F8
:101D1000002B04D17B681A797B6883F834207B68B8
:101D200030331846FEF74CFE7B689B79002B0DD0B4
:101D30007B6893F8283003F00203002B23D17B68E3
:101D4000D3E902347A68C2E908341CE07B6893F86E
:101D50003630002B17D07B68D3E90834012B74F19F
:101D6000000310DB7B6893F8283003F00203002B9C
:101D700009D17B68D3E9083413F1FF3344F1FF3410
:101D80007A68C2E908347B685B7E03F00203002BAB
:101D90000CD17B68D3E90834012B74F10003B4BF84
:101DA00001230023DBB21A467B681A7600BF00BF0E
:101DB00000E000BF0C37BD4690BD00BF80B582B0CB
:101DC00000AF78600B46FB707B6801221A707B685D
:101DD0005B785AB2FB78002B01D0042300E000238B
:101DE00013435BB2DAB27B685A707B6801229A7047
:101DF0007B68DB785AB2FB78002B01D0042300E02B
:101E0000002313435BB2DAB27B68DA707B6800228E
:101E10001A717B685B795AB2FB78002B01D00423DE
:101E200000E0002313435BB2DAB27B685A717B682F
:101E300000229A717B68DB795AB2FB78002B01D0C3
:101E4000042300E0002313435BB2DAB27B68DA714B
:101E50007B6800229A607B681B7B5AB2FB78002B60
:101E600001D0042300E0002313435BB2DAB27B68A5
:101E70001A737B6800221A747B685B7C5AB2FB7809
:101E8000002B01D0042300E0002313435BB2DAB23D
:101E90007B685A747B6800225A617B681B7E5AB249
:101EA000FB78002B01D0042300E0002313435BB236
:101EB000DAB27B681A767B681C33FA7811461846CA
:101EC000FEF724FD00BF0837BD4680BD80B582B057
:101ED00000AF78607B681B78002B09D17B68DB78CA
:101EE00003F00203002B53D17B6800229A704FE06D
:101EF0007B68DB7803F00203002B02D17B680122B0
:101F00009A707B6893F8213003F00203002B04D110
:101F10007B681A797B6883F820207B681C3318461D
:101F2000FEF74EFD7B689B79002B0AD07B681B7EF9
:101F300003F00203002B18D17B689A687B685A6112
:101F400013E07B6893F82230002B0ED07B685B692E
:101F5000002B0AD07B681B7E03F00203002B04D108
:101F60007B685B695A1E7B685A617B685B7C03F007
:101F70000203002B09D17B685B69002B0CBF012396
:101F80000023DBB21A467B681A7400BF00BF00E072
:101F900000BF0837BD4680BD90B583B000AF786004
:101FA0000B46FB707B6801221A707B685B785AB223
:101FB000FB78002B01D0042300E0002313435BB225
:101FC000DAB27B685A707B6801229A707B68DB7892
:101FD0005AB2FB78002B01D0042300E00023134306
:101FE0005BB2DAB27B68DA707B6800221A717B68B8
:101FF0005B795AB2FB78002B01D0042300E0002368
:1020000013435BB2DAB27B685A717B6800229A7123
:102010007B68DB795AB2FB78002B01D0042300E007
:10202000002313435BB2DAB27B68DA717A684FF04F
:1020300000034FF00004C2E902347B681B7C5AB2F3
:10204000FB78002B01D0042300E0002313435BB294
:10205000DAB27B681A747B6800221A767B685B7E32
:102060005AB2FB78002B01D0042300E00023134375
:102070005BB2DAB27B685A767A684FF000034FF0B1
:102080000004C2E908347B6893F828305AB2FB7820
:10209000002B01D0042300E0002313435BB2DAB22B
:1020A0007B6883F828207B683033FA78114618461D
:1020B000FEF72CFC00BF0C37BD4690BD90B583B039
:1020C00000AF78607B681B78002B09D17B68DB78D8
:1020D00003F00203002B5FD17B6800229A705BE063
:1020E0007B68DB7803F00203002B02D17B680122BE
:1020F0009A707B6893F8353003F00203002B04D10B
:102100007B681A797B6883F834207B683033184603
:10211000FEF756FC7B689B79002B0DD07B6893F80B
:10212000283003F00203002B21D17B68D3E902346D
:102130007A68C2E908341AE07B6893F83630002BDD
:1021400015D07B68D3E90834234310D07B6893F81B
:10215000283003F00203002B09D17B68D3E908344F
:1021600013F1FF3344F1FF347A68C2E908347B6825
:102170005B7E03F00203002B0BD17B68D3E90834AC
:102180002343002B0CBF01230023DBB21A467B68DC
:102190001A7600BF00BF00E000BF0C37BD4690BDFF
:1021A00080B582B000AF78600B46FB707B6801227F
:1021B0001A707B685B785AB2FB78002B01D004233D
:1021C00000E0002313435BB2DAB27B685A707B688D
:1021D00001229A707B68DB785AB2FB78002B01D021
:1021E000042300E0002313435BB2DAB27B68DA70A9
:1021F0007B6800221A717B685B795AB2FB78002BEE
:1022000001D0042300E0002313435BB2DAB27B6801
:102210005A717B6800229A717B68DB795AB2FB782D
:10222000002B01D0042300E0002313435BB2DAB299
:102230007B68DA717B6800221A727B685B7A5AB21B
:10224000FB78002B01D0042300E0002313435BB292
:10225000DAB27B685A727B6800229A727B68DB7AFA
:102260005AB2FB78002B01D0042300E00023134373
:102270005BB2DAB27B68DA727B6800229A817B6893
:102280009B7B5AB2FB78002B01D0042300E0002393
:1022900013435BB2DAB27B689A737B6800221A74CC
:1022A0007B685B7C5AB2FB78002B01D0042300E0F2
:1022B000002313435BB2DAB27B685A747B68002256
:1022C0009A747B68DB7C5AB2FB78002B01D0042324
:1022D00000E0002313435BB2DAB27B68DA747B68F8
:1022E00000229A827B689B7D5AB2FB78002B01D03A
:1022F000042300E0002313435BB2DAB27B689A75D3
:102300007B681833FA7811461846FEF7FFFA7B68A7
:102310002233FA7811461846FEF7F8FA00BF08375C
:10232000BD4680BD80B582B000AF78607B681B7809
:10233000002B0AD17B68DB7803F00203002B40F00E
:10234000B1807B6800229A70ACE07B68DB7803F098
:102350000203002B02D17B6801229A707B685B7FAD
:1023600003F00203002B03D17B689A797B681A770C
:102370007B6818331846FEF723FB7B6893F82730F9
:1023800003F00203002B04D17B681A797B6883F881
:1023900026207B6822331846FEF712FB7B681B7AE7
:1023A000002B09D07B689B7D03F00203002B51D1E9
:1023B0007B6800229A824DE07B689B7A002B0BD0D1
:1023C0007B689B7D03F00203002B43D17B68B3F94C
:1023D0000C207B689A823DE07B6893F82830002BC4
:1023E00003D07B689B7F002B34D17B6893F8283027
:1023F000002B17D07B68B3F914207B68B3F90C303D
:102400009A420FDA7B689B7D03F00203002B21D1F7
:102410007B68B3F914309BB201339BB21AB27B686C
:102420009A8217E07B689B7F002B13D07B68B3F9FF
:102430001430002B0EDD7B689B7D03F00203002B24
:1024400008D17B68B3F914309BB2013B9BB21AB23E
:102450007B689A827B685B7C03F00203002B0DD1C2
:102460007B68B3F914207B68B3F90C309A42ACBF97
:1024700001230023DBB21A467B681A747B68DB7C7D
:1024800003F00203002B0AD17B68B3F91430002B50
:10249000D4BF01230023DBB21A467B689A7400BFC5
:1024A00000BF00E000BF0837BD4680BD80B582B0E8
:1024B00000AF78600B46FB707B6801221A707B6866
:1024C0005B785AB2FB78002B01D0042300E0002394
:1024D00013435BB2DAB27B685A707B6801229A7050
:1024E0007B68DB785AB2FB78002B01D0042300E034
:1024F000002313435BB2DAB27B68DA707B68002298
:102500001A717B685B795AB2FB78002B01D00423E7
:1025100000E0002313435BB2DAB27B685A717B6838
:1025200000229A717B68DB795AB2FB78002B01D0CC
:10253000042300E0002313435BB2DAB27B68DA7154
:102540007B6800221A727B685B7A5AB2FB78002B98
:1025500001D0042300E0002313435BB2DAB27B68AE
:102560005A727B6800229A727B68DB7A5AB2FB78D7
:10257000002B01D0042300E0002313435BB2DAB246
:102580007B68DA727B680022DA607B681B7C5AB257
:10259000FB78002B01D0042300E0002313435BB23F
:1025A000DAB27B681A747B6800221A757B685B7DDF
:1025B0005AB2FB78002B01D0042300E00023134320
:1025C0005BB2DAB27B685A757B6800229A757B68C9
:1025D000DB7D5AB2FB78002B01D0042300E00023FE
:1025E00013435BB2DAB27B68DA757B6800229A61CA
:1025F0007B681B7F5AB2FB78002B01D0042300E0DC
:10260000002313435BB2DAB27B681A777B6820330E
:10261000FA7811461846FEF779F97B682A33FA787A
:1026200011461846FEF772F900BF0837BD4680BD57
:1026300080B582B000AF78607B681B78002B0AD130
:102640007B68DB7803F00203002B40F0A6807B68F8
:1026500000229A70A1E07B68DB7803F00203002B74
:1026600002D17B6801229A707B6893F8253003F0D1
:102670000203002B04D17B689A797B6883F82420BD
:102680007B6820331846FEF79BF97B6893F82F3060
:1026900003F00203002B04D17B681A797B6883F86E
:1026A0002E207B682A331846FEF78AF97B681B7A4E
:1026B000002B09D07B681B7F03F00203002B47D15E
:1026C0007B6800229A6143E07B689B7A002B0AD0EA
:1026D0007B681B7F03F00203002B39D17B68DA682B
:1026E0007B689A6134E07B6893F83030002B04D02B
:1026F0007B6893F82630002B2AD17B6893F8303022
:10270000002B11D07B689A697B68DB689A420BDAF0
:102710007B681B7F03F00203002B19D17B689B6948
:102720005A1C7B689A6113E07B6893F82630002B73
:102730000ED07B689B69002B0ADD7B681B7F03F052
:102740000203002B04D17B689B695A1E7B689A6147
:102750007B685B7D03F00203002B0BD17B689A69D9
:102760007B68DB689A42ACBF01230023DBB21A46C8
:102770007B681A757B68DB7D03F00203002B09D1AF
:102780007B689B69002BD4BF01230023DBB21A4670
:102790007B689A7500BF00BF00E000BF0837BD46E8
:1027A00080BD00BF90B583B000AF78600B46FB7072
:1027B0007B6801221A707B685B785AB2FB78002B29
:1027C00001D0042300E0002313435BB2DAB27B683C
:1027D0005A707B6801229A707B68DB785AB2FB786A
:1027E000002B01D0042300E0002313435BB2DAB2D4
:1027F0007B68DA707B6800221A717B685B795AB259
:10280000FB78002B01D0042300E0002313435BB2CC
:10281000DAB27B685A717B6800229A717B68DB7937
:102820005AB2FB78002B01D0042300E000231343AD
:102830005BB2DAB27B68DA717B6800221A727B685D
:102840005B7A5AB2FB78002B01D0042300E000230E
:1028500013435BB2DAB27B685A727B6800229A72C9
:102860007B68DB7A5AB2FB78002B01D0042300E0AE
:10287000002313435BB2DAB27B68DA727A684FF0F6
:1028800000034FF00004C2E904347B681B7E5AB297
:10289000FB78002B01D0042300E0002313435BB23C
:1028A000DAB27B681A767B68002283F820207B6886
:1028B00093F821305AB2FB78002B01D0042300E0BA
:1028C000002313435BB2DAB27B6883F821207B6874
:1028D000002283F822207B6893F823305AB2FB78D9
:1028E000002B01D0042300E0002313435BB2DAB2D3
:1028F0007B6883F823207A684FF000034FF00004D0
:10290000C2E90A347B6893F830305AB2FB78002B66
:1029100001D0042300E0002313435BB2DAB27B68EA
:1029200083F830207B683833FA7811461846FDF773
:10293000EDFF7B684233FA7811461846FDF7E6FF53
:1029400000BF0C37BD4690BD90B583B000AF786036
:102950007B681B78002B0AD17B68DB7803F00203CD
:10296000002B40F0CB807B6800229A70C6E07B6829
:10297000DB7803F00203002B02D17B6801229A70FE
:102980007B6893F83D3003F00203002B04D17B6891
:102990009A797B6883F83C207B6838331846FEF7C9
:1029A0000FF87B6893F8473003F00203002B04D143
:1029B0007B681A797B6883F846207B684233184627
:1029C000FDF7FEFF7B681B7A002B0ED07B6893F827
:1029D000303003F00203002B60D17A684FF000031F
:1029E0004FF00004C2E90A3458E07B689B7A002B60
:1029F0000DD07B6893F8303003F00203002B4DD1EB
:102A00007B68D3E904347A68C2E90A3446E07B681B
:102A100093F84830002B04D07B6893F83E30002BAD
:102A20003CD17B6893F84830002B1AD07B68D3E9FF
:102A30000A127B68D3E90434994272EB040310DA7A
:102A40007B6893F8303003F00203002B26D17B68BB
:102A5000D3E90A34013344F100047A68C2E90A3444
:102A60001CE07B6893F83E30002B17D07B68D3E9DD
:102A70000A34012B74F1000310DB7B6893F83030CB
:102A800003F00203002B09D17B68D3E90A3413F168
:102A9000FF3344F1FF347A68C2E90A347B6893F863
:102AA000213003F00203002B10D17B68D3E90A1216
:102AB0007B68D3E90434994272EB0403ACBF012371
:102AC0000023DBB21A467B6883F820207B6893F8EA
:102AD000233003F00203002B0DD17B68D3E90A34C5
:102AE000012B74F10003B4BF01230023DBB21A46AB
:102AF0007B6883F8222000BF00BF00E000BF0C37D6
:102B0000BD4690BD80B582B000AF78600B46FB70CB
:102B10007B6801221A707B685B785AB2FB78002BC5
:102B200001D0042300E0002313435BB2DAB27B68D8
:102B30005A707B6801229A707B68DB785AB2FB7806
:102B4000002B01D0042300E0002313435BB2DAB270
:102B50007B68DA707B6800221A717B685B795AB2F5
:102B6000FB78002B01D0042300E0002313435BB269
:102B7000DAB27B685A717B6800229A717B68DB79D4
:102B80005AB2FB78002B01D0042300E0002313434A
:102B90005BB2DAB27B68DA717B6800221A727B68FA
:102BA0005B7A5AB2FB78002B01D0042300E00023AB
:102BB00013435BB2DAB27B685A727B6800229A7266
:102BC0007B68DB7A5AB2FB78002B01D0042300E04B
:102BD000002313435BB2DAB27B68DA727B680022AF
:102BE000DA607B681B7C5AB2FB78002B01D004238F
:102BF00000E0002313435BB2DAB27B681A747B688F
:102C000000221A757B685B7D5AB2FB78002B01D0DD
:102C1000042300E0002313435BB2DAB27B685A75E9
:102C20007B6800229A757B68DB7D5AB2FB78002BAB
:102C300001D0042300E0002313435BB2DAB27B68C7
:102C4000DA757B6800229A617B681B7F5AB2FB7839
:102C5000002B01D0042300E0002313435BB2DAB25F
:102C60007B681A777B682033FA7811461846FDF79F
:102C70004DFE7B682A33FA7811461846FDF746FE6A
:102C800000BF0837BD4680BD80B582B000AF786018
:102C90007B681B78002B0AD17B68DB7803F002038A
:102CA000002B40F0A6807B6800229A70A1E07B6830
:102CB000DB7803F00203002B02D17B6801229A70BB
:102CC0007B6893F8253003F00203002B04D17B6866
:102CD0009A797B6883F824207B6820331846FDF7B7
:102CE0006FFE7B6893F82F3003F00203002B04D1B2
:102CF0007B681A797B6883F82E207B682A33184614
:102D0000FDF75EFE7B681B7A002B09D07B681B7F7A
:102D100003F00203002B47D17B6800229A6143E055
:102D20007B689B7A002B0AD07B681B7F03F0020331
:102D3000002B39D17B68DA687B689A6134E07B6864
:102D400093F83030002B04D07B6893F82630002BAA
:102D50002AD17B6893F83030002B11D07B689A69B8
:102D60007B68DB689A420BD27B681B7F03F002030F
:102D7000002B19D17B689B695A1C7B689A6113E010
:102D80007B6893F82630002B0ED07B689B69002B64
:102D90000AD07B681B7F03F00203002B04D17B6801
:102DA0009B695A1E7B689A617B685B7D03F0020316
:102DB000002B0BD17B689A697B68DB689A422CBF39
:102DC00001230023DBB21A467B681A757B68DB7D22
:102DD00003F00203002B09D17B689B69002B0CBF19
:102DE00001230023DBB21A467B689A7500BF00BF3F
:102DF00000E000BF0837BD4680BD00BF90B583B07E
:102E000000AF78600B46FB707B6801221A707B680C
:102E10005B785AB2FB78002B01D0042300E000233A
:102E200013435BB2DAB27B685A707B6801229A70F6
:102E30007B68DB785AB2FB78002B01D0042300E0DA
:102E4000002313435BB2DAB27B68DA707B6800223E
:102E50001A717B685B795AB2FB78002B01D004238E
:102E600000E0002313435BB2DAB27B685A717B68DF
:102E700000229A717B68DB795AB2FB78002B01D073
:102E8000042300E0002313435BB2DAB27B68DA71FB
:102E90007B6800221A727B685B7A5AB2FB78002B3F
:102EA00001D0042300E0002313435BB2DAB27B6855
:102EB0005A727B6800229A727B68DB7A5AB2FB787E
:102EC000002B01D0042300E0002313435BB2DAB2ED
:102ED0007B68DA727A684FF000034FF00004C2E9B1
:102EE00004347B681B7E5AB2FB78002B01D004238C
:102EF00000E0002313435BB2DAB27B681A767B688A
:102F0000002283F820207B6893F821305AB2FB78A6
:102F1000002B01D0042300E0002313435BB2DAB29C
:102F20007B6883F821207B68002283F822207B685D
:102F300093F823305AB2FB78002B01D0042300E031
:102F4000002313435BB2DAB27B6883F823207A68EC
:102F50004FF000034FF00004C2E90A347B6893F895
:102F600030305AB2FB78002B01D0042300E000235C
:102F700013435BB2DAB27B6883F830207B68383366
:102F8000FA7811461846FDF7C1FC7B684233FA789F
:102F900011461846FDF7BAFC00BF0C37BD4690BD80
:102FA00090B583B000AF78607B681B78002B0AD1A6
:102FB0007B68DB7803F00203002B40F0C8807B685D
:102FC00000229A70C3E07B68DB7803F00203002BD9
:102FD00002D17B6801229A707B6893F83D3003F040
:102FE0000203002B04D17B689A797B6883F83C202C
:102FF0007B6838331846FDF7E3FC7B6893F847306D
:1030000003F00203002B04D17B681A797B6883F8F4
:1030100046207B6842331846FDF7D2FC7B681B7A5A
:10302000002B0ED07B6893F8303003F00203002BA6
:103030005ED17A684FF000034FF00004C2E90A3411
:1030400056E07B689B7A002B0DD07B6893F830307C
:1030500003F00203002B4BD17B68D3E904347A6878
:10306000C2E90A3444E07B6893F84830002B04D06E
:103070007B6893F83E30002B3AD17B6893F8483058
:10308000002B1AD07B68D3E90A127B68D3E9043499
:10309000A24208BF994210D27B6893F8303003F007
:1030A0000203002B24D17B68D3E90A34013344F1B5
:1030B00000047A68C2E90A341AE07B6893F83E306B
:1030C000002B15D07B68D3E90A34234310D07B68EA
:1030D00093F8303003F00203002B09D17B68D3E969
:1030E0000A3413F1FF3344F1FF347A68C2E90A3439
:1030F0007B6893F8213003F00203002B10D17B682A
:10310000D3E90A127B68D3E90434A24208BF99428A
:103110002CBF01230023DBB21A467B6883F82020F2
:103120007B6893F8233003F00203002B0CD17B68FB
:10313000D3E90A342343002B0CBF01230023DBB265
:103140001A467B6883F8222000BF00BF00E000BF62
:103150000C37BD4690BD00BF80B483B000AF78602F
:103160000B46FB707B6801221A707B685B785AB251
:10317000FB78002B01D0042300E0002313435BB253
:10318000DAB27B685A707B6801229A707B68DB78C0
:103190005AB2FB78002B01D0042300E00023134334
:1031A0005BB2DAB27B68DA707B6800221A717B68E6
:1031B0005B795AB2FB78002B01D0042300E0002396
:1031C00013435BB2DAB27B685A717B6800229A6063
:1031D0007B680022DA607B681B7C5AB2FB78002B8C
:1031E00001D0042300E0002313435BB2DAB27B6812
:1031F0001A747B6800221A757B685B7D5AB2FB7873
:10320000002B01D0042300E0002313435BB2DAB2A9
:103210007B685A757B6800229A617B680022DA61BC
:103220007B6893F820305AB2FB78002B01D004233E
:1032300000E0002313435BB2DAB27B6883F82020FE
:103240007B68002283F824207B6893F825305AB2EB
:10325000FB78002B01D0042300E0002313435BB272
:10326000DAB27B6883F825207B68002283F8262069
:103270007B6893F827305AB2FB78002B01D00423E7
:1032800000E0002313435BB2DAB27B6883F82720A7
:103290007B6800229A627B680022DA627B6893F87E
:1032A00030305AB2FB78002B01D0042300E0002319
:1032B00013435BB2DAB27B6883F830207B6800226C
:1032C0005A637B6800229A637B6893F83C305AB259
:1032D000FB78002B01D0042300E0002313435BB2F2
:1032E000DAB27B6883F83C2000BF0C37BD465DF83E
:1032F000047B704790B58BB004AFF860FB681B7817
:10330000002B0AD1FB68DB7803F00203002B40F0AE
:10331000DC80FB6800229A70D7E0FB68DB7803F062
:103320000203002B02D1FB6801229A70FB6893F81C
:10333000303003F00203002B06D1FB68654A2833C6
:1033400092E8030083E80300FB6893F92430002B24
:103350002CD1FB6893F82630002B27D1FB681B7912
:10336000002B23D0FB6893F8253003F00203002BD9
:1033700003D1FB68012283F82420FB685B7D03F006
:103380000203002B02D1FB6801221A75FB6893F837
:103390003C3003F00203002B67D1FB68FA6834333A
:1033A000283292E8030083E803005EE0FB6893F9AB
:1033B0002430012B59D107F11000FB68FA68D96855
:1033C00000919B68343206CAFDF74CF9FB6801AAEC
:1033D000283393E8030082E803007B6900933B698C
:1033E000022200210120FDF735FA0346002B23D0ED
:1033F000FB6893F8253003F00203002B03D1FB6830
:10340000022283F82420FB685B7D03F00203002B7B
:1034100002D1FB6800221A75FB6893F8203003F094
:103420000203002B21D1FB68FA681833083292E8B6
:10343000030083E8030018E0FB6893F8203003F0F2
:103440000203002B11D1FC683846FB68FA68996BBF
:1034500000915B6B283206CAFDF72AF904F11803C4
:103460003A4692E8030083E80300FB6893F92430AE
:10347000022B1BD1FB681B79002B17D1FB6893F83B
:10348000203003F00203002B05D1FB6800229A6173
:10349000FB680022DA61FB6893F8253003F0020331
:1034A000002B03D1FB68002283F82420FB6893F8EB
:1034B000273003F00203002B04D1FB681A79FB6864
:1034C00083F8262000BF00BF00E000BF1C37BD46C8
:1034D00090BD00BF880A002080B483B000AF786040
:1034E0000B46FB707B6801221A707B685B785AB2CE
:1034F000FB78002B01D0042300E0002313435BB2D0
:10350000DAB27B685A707B6801229A707B68DB783C
:103510005AB2FB78002B01D0042300E000231343B0
:103520005BB2DAB27B68DA707B6800221A717B6862
:103530005B795AB2FB78002B01D0042300E0002312
:1035400013435BB2DAB27B685A717B6800229A60DF
:103550007B680022DA607B681B7C5AB2FB78002B08
:1035600001D0042300E0002313435BB2DAB27B688E
:103570001A747B6800221A757B685B7D5AB2FB78EF
:10358000002B01D0042300E0002313435BB2DAB226
:103590007B685A757B6800229A617B680022DA6139
:1035A0007B6893F820305AB2FB78002B01D00423BB
:1035B00000E0002313435BB2DAB27B6883F820207B
:1035C0007B68002283F824207B6893F825305AB268
:1035D000FB78002B01D0042300E0002313435BB2EF
:1035E000DAB27B6883F825207B68002283F82620E6
:1035F0007B6893F827305AB2FB78002B01D0042364
:1036000000E0002313435BB2DAB27B6883F8272023
:103610007B6800229A627B680022DA627B6893F8FA
:1036200030305AB2FB78002B01D0042300E0002395
:1036300013435BB2DAB27B6883F830207B680022E8
:103640005A637B6800229A637B6893F83C305AB2D5
:10365000FB78002B01D0042300E0002313435BB26E
:10366000DAB27B6883F83C2000BF0C37BD465DF8BA
:10367000047B704790B58BB004AFF860FB681B7893
:10368000002B0AD1FB68DB7803F00203002B40F02B
:10369000E280FB6800229A70DDE0FB68DB7803F0D3
:1036A0000203002B02D1FB6801229A70FB6893F899
:1036B000303003F00203002B06D1FB68684A283340
:1036C00092E8030083E80300FB6893F92430002BA1
:1036D0002DD1FB6893F82630002B28D1FB681B798D
:1036E000002B24D0FB6893F8253003F00203002B55
:1036F00003D1FB68012283F82420FB685B7D03F083
:103700000203002B02D1FB6800221A75FB6893F8B4
:103710003C3003F00203002B40F08E80FB68FA6817
:103720003433283292E8030083E8030084E0FB6826
:103730001B79002B21D1FB6893F8203003F00203A2
:10374000002B05D1FB6800229A61FB680022DA6138
:10375000FB685B7D03F00203002B02D1FB680022B3
:103760001A75FB6893F8253003F00203002B63D130
:10377000FB68002283F824205EE0FB6893F9243084
:10378000012B59D107F11000FB68FA68D968009144
:103790009B68343206CAFCF765FFFB6801AA283330
:1037A00093E8030082E803007B6900933B690222EF
:1037B00000210120FDF74EF80346002B23D0FB68C3
:1037C00093F8253003F00203002B03D1FB6802229B
:1037D00083F82420FB685B7D03F00203002B02D1F9
:1037E000FB6801221A75FB6893F8203003F002038E
:1037F000002B21D1FB68FA681833083292E80300E5
:1038000083E8030018E0FB6893F8203003F002031C
:10381000002B11D1FC683846FB68FA68996B00915F
:103820005B6B283206CAFCF743FF04F118033A46E3
:1038300092E8030083E80300FB6893F8273003F065
:103840000203002B04D1FB681A79FB6883F8262059
:1038500000BF00BF00E000BF1C37BD4690BD00BFE9
:10386000880A002080B483B000AF78600B46FB70FC
:103870007B6801221A707B685B785AB2FB78002B58
:1038800001D0042300E0002313435BB2DAB27B686B
:103890005A707B6801229A707B68DB785AB2FB7899
:1038A000002B01D0042300E0002313435BB2DAB203
:1038B0007B68DA707B6800221A717B685B795AB288
:1038C000FB78002B01D0042300E0002313435BB2FC
:1038D000DAB27B685A717B6800229A607B680022AA
:1038E000DA607B681B7C5AB2FB78002B01D0042382
:1038F00000E0002313435BB2DAB27B681A747B6882
:1039000000221A757B685B7D5AB2FB78002B01D0D0
:10391000042300E0002313435BB2DAB27B685A75DC
:103920007B6800229A617B680022DA617B6893F8E9
:1039300020305AB2FB78002B01D0042300E0002392
:1039400013435BB2DAB27B6883F820207B680022E5
:1039500083F824207B6893F825305AB2FB78002B3B
:1039600001D0042300E0002313435BB2DAB27B688A
:1039700083F825207B68002283F826207B6893F853
:1039800027305AB2FB78002B01D0042300E000233B
:1039900013435BB2DAB27B6883F827207B6800228E
:1039A0009A627B680022DA627B6893F830305AB200
:1039B000FB78002B01D0042300E0002313435BB20B
:1039C000DAB27B6883F830207B6800225A637B6818
:1039D00000229A637B6893F83C305AB2FB78002B44
:1039E00001D0042300E0002313435BB2DAB27B680A
:1039F00083F83C2000BF0C37BD465DF8047B704760
:103A000090B58BB004AFF860FB681B78002B0AD12F
:103A1000FB68DB7803F00203002B40F0DB80FB68DF
:103A200000229A70D6E0FB68DB7803F00203002BDB
:103A300002D1FB6801229A70FB6893F8303003F0E2
:103A40000203002B06D1FB68644A283392E8030086
:103A500083E80300FB6893F92430002B23D1FB6833
:103A600093F82630002B1ED0FB681B79002B1AD14F
:103A7000FB6893F8253003F00203002B03D1FB68A9
:103A8000012283F82420FB6893F83C3003F0020302
:103A9000002B7BD1FB68FA683433283292E80300AC
:103AA00083E8030072E0FB681B79002B18D0FB68E9
:103AB00093F8203003F00203002B05D1FB680022AD
:103AC0009A61FB680022DA61FB6893F8253003F005
:103AD0000203002B5AD1FB68002283F8242055E012
:103AE000FB6893F92430012B50D107F11000FB68DB
:103AF000FA68D96800919B68343206CAFCF7B2FDB7
:103B0000FB6801AA283393E8030082E803007B697D
:103B100000933B69022200210120FCF79BFE034633
:103B2000002B1AD0FB6893F8253003F00203002B1A
:103B300003D1FB68022283F82420FB6893F820302D
:103B400003F00203002B21D1FB68FA681833083216
:103B500092E8030083E8030018E0FB6893F8203044
:103B600003F00203002B11D1FC683846FB68FA68A9
:103B7000996B00915B6B283206CAFCF799FD04F142
:103B800018033A4692E8030083E80300FB685B7D74
:103B900003F00203002B0ED1FB681B79002B04D12C
:103BA000FB6893F92430012B01D1012300E00023AD
:103BB000DAB2FB681A75FB6893F8273003F002034A
:103BC000002B04D1FB681A79FB6883F8262000BF1C
:103BD00000BF00E000BF1C37BD4690BD880A002032
:103BE00080B483B000AF78600B46FB707B68012225
:103BF0001A707B685B785AB2FB78002B01D00423E3
:103C000000E0002313435BB2DAB27B685A707B6832
:103C100001229A707B68DB785AB2FB78002B01D0C6
:103C2000042300E0002313435BB2DAB27B68DA704E
:103C30007B6800221A717B685B795AB2FB78002B93
:103C400001D0042300E0002313435BB2DAB27B68A7
:103C50005A717B684FF000029A607B681B7B5AB2F6
:103C6000FB78002B01D0042300E0002313435BB258
:103C7000DAB27B681A737B6800221A617B680022C3
:103C80005A617B681B7E5AB2FB78002B01D004235B
:103C900000E0002313435BB2DAB27B681A767B68DC
:103CA0004FF00002DA617B6893F820305AB2FB785B
:103CB000002B01D0042300E0002313435BB2DAB2EF
:103CC0007B6883F820207B684FF000025A627B6893
:103CD00093F828305AB2FB78002B01D0042300E07F
:103CE000002313435BB2DAB27B6883F828207B6839
:103CF0004FF00002DA627B6893F830305AB2FB78FA
:103D0000002B01D0042300E0002313435BB2DAB29E
:103D10007B6883F830207B684FF000025A637B6831
:103D200093F838305AB2FB78002B01D0042300E01E
:103D3000002313435BB2DAB27B6883F8382000BFFC
:103D40000C37BD465DF8047B704700BFB0B582B04C
:103D500000AF78607B681B78002B0AD17B68DB782A
:103D600003F00203002B40F0BC807B6800229A70B5
:103D7000B7E07B68DB7803F00203002B02D17B689D
:103D800001229A707B681B79002B7BD07B6893F8AB
:103D9000203003F00203002B52D17B6893ED027AAE
:103DA0007B68D3ED0D7A77EE677A17EE900A11F003
:103DB00035FA4FF000024D4B11F084FA03460C46E1
:103DC00025461C467B685B6A184611F027FA0246B6
:103DD0000B462046294611F0C3F803460C462546FB
:103DE0001C467B68DB6A184611F018FA02460B463F
:103DF0002046294611F0B2F803460C4625461C46DB
:103E00007B6810330CCB00210120FCF79DFC10EEE9
:103E1000103A184611F002FA4FF00002344B11F03C
:103E200051FA02460B462046294611F075FB03461F
:103E30000C461846214611F07FFC02467B68DA6189
:103E40007B6893F8383003F00203002B03D17B68C2
:103E5000DA6A7B685A637B6893F8303003F00203B8
:103E6000002B03D17B685A6A7B68DA627B6893F81F
:103E7000283003F00203002B30D17B689A687B68FE
:103E80005A622BE07B6893F8203003F00203002B8A
:103E900003D17B684FF00002DA617B6893F8283029
:103EA00003F00203002B03D17B689A687B685A6297
:103EB0007B6893F8303003F00203002B03D17B685A
:103EC0009A687B68DA627B6893F8383003F0020303
:103ED000002B03D17B689A687B685A6300BF00BFE0
:103EE00000E000BF0837BD46B0BD00BF000008407D
:103EF0000000244080B483B000AF78600B46FB70B4
:103F00007B6801221A707B685B785AB2FB78002BC1
:103F100001D0042300E0002313435BB2DAB27B68D4
:103F20005A707B6801229A707B68DB785AB2FB7802
:103F3000002B01D0042300E0002313435BB2DAB26C
:103F40007B68DA707B684FF000025A607B681B7AEE
:103F50005AB2FB78002B01D0042300E00023134366
:103F60005BB2DAB27B681A727B684FF00002DA60EB
:103F70007B681B7C5AB2FB78002B01D0042300E045
:103F8000002313435BB2DAB27B681A747B684FF08C
:103F900000025A617B681B7E5AB2FB78002B01D06D
:103FA000042300E0002313435BB2DAB27B681A7685
:103FB0007B6800221A777B685B7F5AB2FB78002B04
:103FC00001D0042300E0002313435BB2DAB27B6824
:103FD0005A7700BF0C37BD465DF8047B704700BFC1
:103FE00080B483B000AF78607B681B78002B09D168
:103FF0007B68DB7803F00203002B48D17B6800224A
:104000009A7044E07B68DB7803F00203002B02D156
:104010007B6801229A707B681B7F002B1AD07B681B
:1040200093ED017A7B68D3ED036A7B68D3ED057A63
:1040300076EEE77AB4EEE77AF1EE10FA00D423E0F8
:104040007B685B7F03F00203002B1DD17B6800229D
:104050001A7719E07B6893ED017A7B68D3ED036AE8
:104060007B68D3ED057A76EEA77AB4EEE77AF1EEC7
:1040700010FA00DC08E07B685B7F03F00203002B92
:1040800002D17B6801221A7700BF00BF00E000BFA9
:104090000C37BD465DF8047B704700BF80B483B029
:1040A00000AF78600B46FB707B6801221A707B685A
:1040B0005B785AB2FB78002B01D0042300E0002388
:1040C00013435BB2DAB27B685A707B6801229A7044
:1040D0007B68DB785AB2FB78002B01D0042300E028
:1040E000002313435BB2DAB27B68DA707B6800228C
:1040F0001A717B685B795AB2FB78002B01D00423DC
:1041000000E0002313435BB2DAB27B685A717B682C
:1041100000229A717B68DB795AB2FB78002B01D0C0
:10412000042300E0002313435BB2DAB27B68DA7148
:104130007B684FF000029A607B681B7B5AB2FB7869
:10414000002B01D0042300E0002313435BB2DAB25A
:104150007B681A737B684FF000021A617B681B7DD5
:104160005AB2FB78002B01D0042300E00023134354
:104170005BB2DAB27B681A757B6800229A617B6851
:104180000022DA617B6893F820305AB2FB78002B6A
:1041900001D0042300E0002313435BB2DAB27B6852
:1041A00083F820207B68002283F824207B6893F822
:1041B00025305AB2FB78002B01D0042300E0002305
:1041C00013435BB2DAB27B6883F825207B684FF03B
:1041D00000029A627B6893F82C305AB2FB78002B6D
:1041E00001D0042300E0002313435BB2DAB27B6802
:1041F00083F82C2000BF0C37BD465DF8047B704768
:1042000080B52DED028B82B000AF78607B681B78A3
:10421000002B09D17B68DB7803F00203002B52D11D
:104220007B6800229A704EE07B68DB7803F0020323
:10423000002B02D17B6801229A707B6893F82530AD
:1042400003F00203002B0AD17B689B79002B0CBF83
:1042500001230023DBB21A467B6883F824207B68A5
:104260009B79002B0BD07B6893F82C3003F0020372
:10427000002B25D17B681A697B689A6220E07B68F5
:104280001B79002B1CD07B6893F82C3003F00203C1
:10429000002B15D17B6893ED0A8A7B68D3ED028AE7
:1042A0007B6818330CCB00210120FCF74DFAF0EEAF
:1042B000407A68EEA77A78EE277A7B68C3ED0A7AAF
:1042C00000BF00BF00E000BF0837BD46BDEC028B59
:1042D00080BD00BF80B582B000AF78600B46FB7038
:1042E0007B6801221A707B685B785AB2FB78002BDE
:1042F00001D0042300E0002313435BB2DAB27B68F1
:104300005A707B6801229A707B68DB785AB2FB781E
:10431000002B01D0042300E0002313435BB2DAB288
:104320007B68DA707B6800221A717B685B795AB20D
:10433000FB78002B01D0042300E0002313435BB281
:10434000DAB27B685A717B684FF000029A607B6832
:104350001B7B5AB2FB78002B01D0042300E0002322
:1043600013435BB2DAB27B681A737B684FF00002CA
:104370001A617B681B7D5AB2FB78002B01D00423A5
:1043800000E0002313435BB2DAB27B681A757B68E6
:104390004FF000029A617B681B7F5AB2FB78002BBA
:1043A00001D0042300E0002313435BB2DAB27B6840
:1043B0001A777B684FF000021A627B6893F824300A
:1043C0005AB2FB78002B01D0042300E000231343F2
:1043D0005BB2DAB27B6883F824207B684FF000027E
:1043E0009A627B6893F82C305AB2FB78002B01D08C
:1043F000042300E0002313435BB2DAB27B6883F846
:104400002C207B684FF000021A637B6893F83430ED
:104410005AB2FB78002B01D0042300E000231343A1
:104420005BB2DAB27B6883F834207B6800229A633F
:104430007B680022DA637B6893F840305AB2FB78DD
:10444000002B01D0042300E0002313435BB2DAB257
:104450007B6883F840207B684FF000025A647B68D9
:1044600093F848305AB2FB78002B01D0042300E0C7
:10447000002313435BB2DAB27B6883F848207B6881
:104480004FF00002DA647B6893F850305AB2FB7840
:10449000002B01D0042300E0002313435BB2DAB207
:1044A0007B6883F850207B685433FA7811461846AD
:1044B000FFF7F4FD7B688433FA7811461846FFF75E
:1044C0008FFB00BF0837BD4680BD00BF80B582B0FE
:1044D00000AF78607B681B78002B0AD17B68DB78A3
:1044E00003F00203002B40F0C8807B6800229A7022
:1044F000C3E07B68DB7803F00203002B02D17B680A
:1045000001229A707B6893F8503003F00203002B6D
:104510000AD17B6893ED027A7B68D3ED047A77EE5B
:10452000677A7B68C3ED137A7B6893F8593003F0A0
:104530000203002B04D17B681A797B6883F858202A
:104540007B6893F85B3003F00203002B0AD17B6891
:104550001B79002B0CBF01230023DBB21A467B68BA
:1045600083F85A207B6893F8603003F00203002B35
:1045700003D17B68DA6C7B68DA657B6893F8683016
:1045800003F00203002B0FD17B6893ED0A7A7B685E
:10459000D3ED066A7B68D3ED137A76EEE77A67EEA1
:1045A000277A7B68C3ED197A7B6893F8743003F03F
:1045B0000203002B07D17B687A686C33383292E8AB
:1045C000030083E803007B6854331846FFF718FEA6
:1045D0007B6893F8893003F00203002B04D17B68D9
:1045E0001A797B6883F888207B6893F8903003F011
:1045F0000203002B04D17B68DA6C7B68C3F88C2043
:104600007B6893F89C3003F00203002B07D17B6892
:104610007A689433383292E8030083E803007B68B9
:1046200084331846FFF792FB7B6893F8483003F019
:104630000203002B1ED17B6893ED087A7B68D3EDD3
:10464000136A7B68D3ED1F5A7B6893ED0A6AC5EE47
:10465000867A76EEA76A7B6893ED286A7B68D3ED4D
:104660000C7A66EE277A76EEA77A67EE277A7B6871
:10467000C3ED117A00BF00BF00E000BF0837BD46A0
:1046800080BD00BF80B483B000AF78600B46FB7084
:104690007B6801221A707B685B785AB2FB78002B2A
:1046A00001D0042300E0002313435BB2DAB27B683D
:1046B0005A707B6801229A707B68DB785AB2FB786B
:1046C000002B01D0042300E0002313435BB2DAB2D5
:1046D0007B68DA707B6800221A717B685B795AB25A
:1046E000FB78002B01D0042300E0002313435BB2CE
:1046F000DAB27B685A717B684FF000029A607B687F
:104700001B7B5AB2FB78002B01D0042300E000236E
:1047100013435BB2DAB27B681A737B684FF0000216
:104720001A617B681B7D5AB2FB78002B01D00423F1
:1047300000E0002313435BB2DAB27B681A757B6832
:1047400000229A617B680022DA617B6893F820304E
:104750005AB2FB78002B01D0042300E0002313435E
:104760005BB2DAB27B6883F820207B6800225A6251
:104770007B6800229A627B6893F82C305AB2FB78EF
:10478000002B01D0042300E0002313435BB2DAB214
:104790007B6883F82C207B68002283F830207B68BC
:1047A00093F831305AB2FB78002B01D0042300E09B
:1047B000002313435BB2DAB27B6883F831207B6855
:1047C0004FF000025A637B6893F838305AB2FB7896
:1047D000002B01D0042300E0002313435BB2DAB2C4
:1047E0007B6883F838207B684FF00002DA637B68CF
:1047F00093F840305AB2FB78002B01D0042300E03C
:10480000002313435BB2DAB27B6883F840207B68F5
:1048100000225A647B6800229A647B6893F84C30CB
:104820005AB2FB78002B01D0042300E0002313438D
:104830005BB2DAB27B6883F84C2000BF0C37BD4610
:104840005DF8047B704700BF90B52DED028B89B0F9
:1048500004AFF860FB681B78002B0AD1FB68DB789B
:1048600003F00203002B40F0B480FB6800229A7032
:10487000AFE0FB68DB7803F00203002B02D1FB689A
:1048800001229A70FB6893F8313003F00203002B89
:1048900004D1FB681A79FB6883F83020FB681B7928
:1048A000002B70D0FB68FA6801AC183292E8030064
:1048B00084E803009A6C00925B6C022200210120C4
:1048C000FBF770FF0346002B16D0FB6893F83130DE
:1048D00003F00203002B03D1FB68002283F8302091
:1048E000FB6893F8383003F00203002B6ED1FB68AD
:1048F0001A69FB685A6369E0FB6893F8383003F083
:104900000203002B25D1FB6893ED0F8AFB6893ED22
:10491000047AFB68D3ED0F7A77EE678AFB6844333D
:104920000CCB00210120FBF70FFFF0EE407A68EE80
:10493000A78AFB6818330CCB00210120FBF704FF8A
:10494000B0EE407AC8EE877A78EE277AFB68C3ED3E
:104950000D7AFB6893F84C3003F00203002B35D13D
:10496000FC683846FB68FA68996A00915B6A4432D1
:1049700006CAFBF777FE04F144033A4692E80300C7
:1049800083E8030022E0FB6893F8383003F0020369
:10499000002B03D1FB689A68FB685A63FB6893F8A5
:1049A000403003F00203002B03D1FB689A68FB68D8
:1049B000DA63FB6893F84C3003F00203002B05D157
:1049C000FB6800225A64FB6800229A6400BF00BFA3
:1049D00000E000BF1437BD46BDEC028B90BD00BFA8
:1049E000B0B58CB008AFF8600B46FB72FB680122D3
:1049F0001A70FB685B785AB2FB7A002B01D0042353
:104A000000E0002313435BB2DAB2FB685A70FB6824
:104A100001229A70FB68DB785AB2FB7A002B01D036
:104A2000042300E0002313435BB2DAB2FB68DA70C0
:104A3000FB6800221A71FB685B795AB2FB7A002B83
:104A400001D0042300E0002313435BB2DAB2FB6819
:104A50005A71FD68394640F2B273069301230593FB
:104A6000012304934FF000034FF00004CDE902341A
:104A70004FF000034FF00004CDE900344FF0000286
:104A80004FF000030846FBF73BFD05F108033A46EB
:104A900092E8030083E80300FB681B7C5AB2FB7AB0
:104AA000002B01D0042300E0002313435BB2DAB2F1
:104AB000FB681A74FB6800221A75FB685B7D5AB2AA
:104AC000FB7A002B01D0042300E0002313435BB2E8
:104AD000DAB2FB685A75FD68394640F2B273069344
:104AE00001230593012304934FF000034FF00004CA
:104AF000CDE902344FF000034FF00004CDE900345B
:104B00004FF000024FF000030846FBF7F9FC05F1F7
:104B100018033A4692E8030083E80300FB6893F821
:104B200020305AB2FB7A002B01D0042300E000238E
:104B300013435BB2DAB2FB6883F82020FB680022E3
:104B400083F82420FB6893F825305AB2FB7A002BB7
:104B500001D0042300E0002313435BB2DAB2FB6808
:104B600083F82520FB6800229A62FB680022DA6243
:104B7000FB6893F830305AB2FB7A002B01D0042343
:104B800000E0002313435BB2DAB2FB6883F8302005
:104B9000FD68394640F2B273069301230593012361
:104BA00004934FF000034FF00004CDE902344FF0BE
:104BB00000034FF00004CDE900344FF000024FF045
:104BC00000030846FBF79CFC05F134033A4692E8E3
:104BD000030083E80300FB6893F83C305AB2FB7A89
:104BE000002B01D0042300E0002313435BB2DAB2B0
:104BF000FB6883F83C2000BF1037BD46B0BD00BF46
:104C000090B587B002AFF860FB681B78002B09D124
:104C1000FB68DB7803F00203002B7ED1FB680022E7
:104C20009A707AE0FB68DB7803F00203002B02D174
:104C3000FB6801229A70FB6893F83C3003F0020392
:104C4000002B06D1FB68374A343392E8030083E82F
:104C50000300FB681B79002B37D0FB6893F82430E6
:104C6000002B18D1FB6893F8303003F00203002BBF
:104C700011D1FC683846FB68FA68996B00915B6B50
:104C8000083206CAFBF714FD04F128033A4692E8FD
:104C9000030083E80300FB6893F8203003F002036D
:104CA000002B21D1FC683846FB68FA68D96A00916C
:104CB0009B6A343206CAFBF7D5FC04F118033A4666
:104CC00092E8030083E803000EE0FB6893F82030CD
:104CD00003F00203002B07D1FB68FA681833343263
:104CE00092E8030083E80300FB685B7D03F00203A6
:104CF000002B03D1FB681A79FB681A75FB6893F8DF
:104D0000253003F00203002B04D1FB681A79FB68FD
:104D100083F8242000BF00BF00E000BF1437BD4669
:104D200090BD00BF880A002080B483B000AF7860D7
:104D30000B46FB707B6801221A707B685B785AB265
:104D4000FB78002B01D0042300E0002313435BB267
:104D5000DAB27B685A707B6801229A707B68DB78D4
:104D60005AB2FB78002B01D0042300E00023134348
:104D70005BB2DAB27B68DA707B6800221A717B68FA
:104D80005B795AB2FB78002B01D0042300E00023AA
:104D900013435BB2DAB27B685A717B6800229A7166
:104DA0007B68DB795AB2FB78002B01D0042300E04A
:104DB000002313435BB2DAB27B68DA717B680022AE
:104DC0001A727B685B7A5AB2FB78002B01D00423FD
:104DD00000E0002313435BB2DAB27B685A727B684F
:104DE00000229A727B68DB7A5AB2FB78002B01D0E2
:104DF000042300E0002313435BB2DAB27B68DA726B
:104E000000BF0C37BD465DF8047B704780B483B0AB
:104E100000AF78607B681B78002B09D17B68DB785A
:104E200003F00203002B31D17B6800229A702DE041
:104E30007B68DB7803F00203002B02D17B68012240
:104E40009A707B68DB7A03F00203002B11D17B6838
:104E50001B79002B07D17B689B7A002B05D07B68E0
:104E60009B79002B01D1012300E00023DAB27B689B
:104E70009A727B685B7A03F00203002B03D17B6894
:104E80009A7A7B681A7200BF00BF00E000BF0C373F
:104E9000BD465DF8047B704780B582B000AF00234B
:104EA000FB7104F0F5FE00BF0837BD4680BD00BFB2
:104EB00080B582B000AF7860786804F0FFFE00BF74
:104EC0000837BD4680BD00BF80B500AF044B1B68EE
:104ED000DB681B220121034811F0E0F900BF80BD0F
:104EE000800400204CC2010880B483B000AF786019
:104EF0007B685B68194A934207DB7B681B68002B61
:104F00000EDD7B685B68002B0ADA7B681B685A1E23
:104F10007B681A607B685A68114B13447A68536047
:104F20007B685B680E4A934207DC7B681B68002B3A
:104F30000EDA7B685B68002B0ADD7B681B685A1CF5
:104F40007B681A607B685A68044B13447A68536024
:104F500000BF0C37BD465DF8047B7047003665C462
:104F600000CA9A3B80B58EB000AFF860B9607A6035
:104F70003B607B68002B02DD7B680C2B01DDFFF7BB
:104F8000A3FF3B6803F00303002B1CD13A68674B77
:104F900083FB02135911D317CB1A642101FB03F3CE
:104FA000D31A002B0DD13A68604B83FB0213D91141
:104FB000D317CB1A4FF4C87101FB03F3D31A002B9C
:104FC00001D1012200E000227B68591E5848134697
:104FD0005B0013449B0013440B4430F813301A4613
:104FE000BB6813447B633B6803F00303002B1CD1B5
:104FF0003A684E4B83FB02135911D317CB1A642125
:1050000001FB03F3D31A002B0DD13A68474B83FB06
:105010000213D911D317CB1A4FF4C87101FB03F354
:10502000D31A002B01D1012200E00022404913468F
:105030005B0013449B0013447A68134431F8133027
:105040001A467B6B9A4201DAFFF73EFF3B689B10E2
:105050003A6802F00302002A0CBF01220022D2B2F9
:105060009B1A3B634FF4F673FB623B6B2F4A82FB48
:105070000312D210DB17D01A396B2C4B83FB0123A0
:10508000DA10CB17D21A13469B0013449A0013442C
:10509000CA1AD30FDBB2C31ABB62FB6A234A82FB74
:1050A0000312D210DB17D01AF96A204B83FB0123BD
:1050B000DA10CB17D21A13469B0013449A001344FC
:1050C000CA1AD30FDBB2C31A7B62BB6A9B103B6266
:1050D0007B6A9B10FB613A6BFB6AD21AB96A7B6AE6
:1050E000CB1AD21A396AFB69CB1A1344BB613B68ED
:1050F000A3F2B27340F26D1202FB03F2BB691A44D1
:105100007B6B1344013B0B4A02FB03F33B6100231F
:105110007B61FB681A4607F1100393E8030082E8FD
:105120000300F8683837BD4680BD00BF1F85EB51CE
:1051300068C2010880510100B0B588B000AFF860C6
:10514000C7E9002307F11800BB6C7A6C396CFFF7D4
:1051500009FF4FF00002504BD7E90E0110F0B2F8F2
:1051600003460C4618462146D7E90C230FF0F8FEFB
:1051700003460C46184621464FF00002464B10F0FD
:10518000A1F803460C4618462146D7E900230FF044
:10519000E7FE03460C461846214610F0A5FA0346E2
:1051A0003B614FF000023C4BD7E90E0110F08AF84A
:1051B00003460C4618462146D7E90C230FF0D0FED3
:1051C00003460C46184621464FF00002324B10F0C1
:1051D00079F803460C4618462146D7E900230FF01C
:1051E000BFFE03460C4625461C464FF000022A4BE4
:1051F000D7E90E0110F066F802460B461046194634
:10520000D7E90C230FF0ACFE02460B4610461946B8
:105210004FF00002204B10F055F802460B461046A6
:105220001946D7E900230FF09BFE02460B461046B5
:10523000194610F059FA034618460FF0DDFF0246F2
:105240000B46204629460FF089FE03460C461846B9
:1052500021460FA3D3E9002310F034F803460C468F
:105260001846214610F040FA03467B613A69BB6953
:1052700013443B61FB681A4607F1100393E80300EF
:1052800082E80300F8682037BD46B0BDAFF3008068
:105290000000000065CDCD4100004E4082B080B5D9
:1052A00086B000AFF860381D80E806007B627A683F
:1052B0007B6A13443B61BA68BB6A13447B6107F1A4
:1052C00010031846FFF710FEFB681A4607F110039B
:1052D00093E8030082E80300F8681837BD46BDE88C
:1052E000804002B0704700BF82B080B586B000AF8A
:1052F000F860381D80E806007B627A687B6AD31A02
:105300003B61BA68BB6AD31A7B6107F11003184688
:10531000FFF7EAFDFB681A4607F1100393E8030064
:1053200082E80300F8681837BD46BDE8804002B047
:10533000704700BFB0B582B000AF3B4683E80300C2
:105340003B6818460FF058FF04460D467B68184628
:105350000FF052FF08A3D3E9002310F0DDF8024656
:105360000B46204629460FF0FBFD03460C46184627
:1053700021460837BD46B0BD0000000065CDCD41D7
:1053800090B585B000AFB960394681E80C0003469E
:10539000FB73FB7B002B08D1BB68002B02D0BB68E2
:1053A00000221A704FF0000311E0BB68002B02D0FE
:1053B000BB6801221A703B4693E80300FFF7BAFF6F
:1053C00003460C461846214610F0B6F9034607EE90
:1053D000903AB0EE670A1437BD4690BD08B480B469
:1053E00084B000AF03463960FB711346BB80FB7984
:1053F000002B07D13B68002B02D03B6800221A70BB
:10540000002321E03B68002B02D03B6801221A7088
:1054100007F11803BB600023FB810FE03B7D002BED
:1054200007D0BB681A1DBA601B68002B01D001238E
:1054300000E000233B75FB890133FB81FA89BB88BF
:10544000013B9A42EADB3B7D18461037BD465DF8CA
:10545000047B01B0704700BF08B480B486B000AFD1
:1054600003463960FB711346BB80FB79002B07D1E3
:105470003B68002B02D03B6800221A7000233CE0FE
:105480003B68002B02D03B6801221A7007F124030D
:105490003B610023FB822AE03B6903F108023A6189
:1054A00007F1080293E8030082E80300BA68FB6989
:1054B0009A4206D13A6AFB68D31ADB43DB0FDBB2B0
:1054C00005E0FA69BB68D31ADB43DB0FDBB2002BC4
:1054D0000BD007F11C0207F1080393E8030082E8F0
:1054E0000300FB8A0133FB8201E0002305E0FA8A16
:1054F000BB88013B9A42CFDB012318461837BD46D3
:105500005DF8047B01B0704708B480B486B000AF8A
:1055100003463960FB711346BB80FB79002B07D132
:105520003B68002B02D03B6800221A70002340E049
:105530003B68002B02D03B6801221A7007F124035C
:105540003B610023FB822EE03B6903F108023A61D4
:1055500007F1080293E8030082E80300BA68FB69D8
:105560009A4208D13A6AFB68D31A002BD4BF0123B0
:105570000023DBB207E0FA69BB68D31A002BD4BF63
:1055800001230023DBB2002B0BD007F11C0207F133
:10559000080393E8030082E80300FB8A0133FB82DF
:1055A00001E0002305E0FA8ABB88013B9A42CBDB8D
:1055B000012318461837BD465DF8047B01B07047DB
:1055C00080B483B000AF78600B46FB707B6801222B
:1055D0001A707B685B785AB2FB78002B01D00423E9
:1055E00000E0002313435BB2DAB27B685A707B6839
:1055F00001229A707B68DB785AB2FB78002B01D0CD
:10560000042300E0002313435BB2DAB27B68DA7054
:105610007B6800221A717B685B795AB2FB78002B99
:1056200001D0042300E0002313435BB2DAB27B68AD
:105630005A717B6800229A717B68DB795AB2FB78D9
:10564000002B01D0042300E0002313435BB2DAB245
:105650007B68DA717B6800221A727B685B7A43F0A0
:105660000403DAB27B685A7200BF0C37BD465DF89E
:10567000047B704780B483B000AF78607B681B7890
:10568000002B09D17B68DB7803F00203002B2DD1BE
:105690007B6800229A7029E07B68DB7803F00203C4
:1056A000002B02D17B6801229A707B68DB7903F0C2
:1056B0000203002B0DD17B681B79002B05D07B6882
:1056C0001B7A002B01D1012300E00023DAB27B68B2
:1056D0009A717B685B7A03F00203002B03D17B682D
:1056E0001A797B681A7200BF00BF00E000BF0C3758
:1056F000BD465DF8047B704780B483B000AF78602E
:105700000B46FB707B6801221A707B685B785AB28B
:10571000FB78002B01D0042300E0002313435BB28D
:10572000DAB27B685A707B6801229A707B68DB78FA
:105730005AB2FB78002B01D0042300E0002313436E
:105740005BB2DAB27B68DA707B6800221A717B6820
:105750005B795AB2FB78002B01D0042300E00023D0
:1057600013435BB2DAB27B685A717B6800229A718C
:105770007B68DB795AB2FB78002B01D0042300E070
:10578000002313435BB2DAB27B68DA717B680022D4
:105790001A727B685B7A43F00403DAB27B685A7250
:1057A00000BF0C37BD465DF8047B704780B483B002
:1057B00000AF78607B681B78002B09D17B68DB78B1
:1057C00003F00203002B33D17B6800229A702FE094
:1057D0007B68DB7803F00203002B02D17B68012297
:1057E0009A707B68DB7903F00203002B0DD17B6894
:1057F0001B79002B05D17B681B7A002B01D101237B
:1058000000E00023DAB27B689A717B685B7A03F070
:105810000203002B09D17B681B79002B0CBF0123ED
:105820000023DBB21A467B681A7200BF00BF00E09B
:1058300000BF0C37BD465DF8047B704780B483B071
:1058400000AF78600B46FB707B6801221A707B68A2
:105850005B785AB2FB78002B01D0042300E00023D0
:1058600013435BB2DAB27B685A707B6801229A708C
:105870007B68DB785AB2FB78002B01D0042300E070
:10588000002313435BB2DAB27B68DA707B680022D4
:105890001A717B685B795AB2FB78002B01D0042324
:1058A00000E0002313435BB2DAB27B685A717B6875
:1058B00000229A717B68DB795AB2FB78002B01D009
:1058C000042300E0002313435BB2DAB27B68DA7191
:1058D0007B6800221A727B685B7A5AB2FB78002BD5
:1058E00001D0042300E0002313435BB2DAB27B68EB
:1058F0005A7200BF0C37BD465DF8047B704700BF8D
:1059000080B483B000AF78607B681B78002B09D12E
:105910007B68DB7803F00203002B27D17B68002231
:105920009A7023E07B68DB7803F00203002B02D13E
:105930007B6801229A707B685B7A03F00203002B7C
:1059400011D17B681B79002B07D17B689B79002BD9
:1059500005D17B681B7A002B01D0012300E00023D6
:10596000DAB27B681A7200BF00BF00E000BF0C37DC
:10597000BD465DF8047B704780B483B000AF7860AB
:105980000B46FB707B6801221A707B685B785AB209
:10599000FB78002B01D0042300E0002313435BB20B
:1059A000DAB27B685A707B6801229A707B68DB7878
:1059B0005AB2FB78002B01D0042300E000231343EC
:1059C0005BB2DAB27B68DA707B6800221A717B689E
:1059D0005B795AB2FB78002B01D0042300E000234E
:1059E00013435BB2DAB27B685A717B6800229A710A
:1059F0007B68DB795AB2FB78002B01D0042300E0EE
:105A0000002313435BB2DAB27B68DA717B68002251
:105A10001A727B685B7A5AB2FB78002B01D00423A0
:105A200000E0002313435BB2DAB27B685A7200BF16
:105A30000C37BD465DF8047B704700BF80B483B06F
:105A400000AF78607B681B78002B09D17B68DB781E
:105A500003F00203002B27D17B6800229A7023E019
:105A60007B68DB7803F00203002B02D17B68012204
:105A70009A707B685B7A03F00203002B11D17B687C
:105A80009B79002B09D17B681B79002B03D17B68A4
:105A90001B7A002B01D0012300E00023DAB27B68DF
:105AA0001A7200BF00BF00E000BF0C37BD465DF8B2
:105AB000047B704780B582B000AF78600B46FB7006
:105AC0007B6801221A707B685B785AB2FB78002BE6
:105AD00001D0042300E0002313435BB2DAB27B68F9
:105AE0005A707B6801229A707B68DB785AB2FB7827
:105AF000002B01D0042300E0002313435BB2DAB291
:105B00007B68DA707B6800221A717B685B795AB215
